{
  "address": "0x29db911dc7b0b2e3e2b62be597bbebcc8fea2438",
  "abi": [
    {
      "anonymous": false,
      "inputs": [
        {
          "indexed": true,
          "internalType": "address",
          "name": "previousOwner",
          "type": "address"
        },
        {
          "indexed": true,
          "internalType": "address",
          "name": "newOwner",
          "type": "address"
        }
      ],
      "name": "OwnershipTransferred",
      "type": "event"
    },
    {
      "inputs": [
        {
          "internalType": "uint256",
          "name": "_strike",
          "type": "uint256"
        }
      ],
      "name": "getVolatility",
      "outputs": [
        {
          "internalType": "uint256",
          "name": "",
          "type": "uint256"
        }
      ],
      "stateMutability": "view",
      "type": "function"
    },
    {
      "inputs": [],
      "name": "owner",
      "outputs": [
        {
          "internalType": "address",
          "name": "",
          "type": "address"
        }
      ],
      "stateMutability": "view",
      "type": "function"
    },
    {
      "inputs": [],
      "name": "renounceOwnership",
      "outputs": [],
      "stateMutability": "nonpayable",
      "type": "function"
    },
    {
      "inputs": [
        {
          "internalType": "address",
          "name": "newOwner",
          "type": "address"
        }
      ],
      "name": "transferOwnership",
      "outputs": [],
      "stateMutability": "nonpayable",
      "type": "function"
    },
    {
      "inputs": [
        {
          "internalType": "uint256",
          "name": "_volatility",
          "type": "uint256"
        }
      ],
      "name": "updateVolatility",
      "outputs": [],
      "stateMutability": "nonpayable",
      "type": "function"
    }
  ],
  "transactionHash": "0x7d0f63c463a6c2bc28f1197f240d170de754f71cc1eb1ee646087dd2d5e9a9f1",
  "args": [],
  "numDeployments": 1,
  "solcInputHash": "98d4b3a882cf7705137367bfd07cb28a",
  "bytecode": "0x6080604052601e60015534801561001557600080fd5b5061001f33610024565b610074565b600080546001600160a01b038381166001600160a01b0319831681178455604051919092169283917f8be0079c531659141344cd1fd0a4f28419497f9722a3daafe3b4186f6b6457e09190a35050565b61033e806100836000396000f3fe608060405234801561001057600080fd5b50600436106100675760003560e01c80638da5cb5b116100505780638da5cb5b14610089578063c189c19b146100b6578063f2fde38b146100d957600080fd5b80632834a7c81461006c578063715018a614610081575b600080fd5b61007f61007a3660046102b2565b600155565b005b61007f6100ec565b60005460405173ffffffffffffffffffffffffffffffffffffffff90911681526020015b60405180910390f35b6100cb6100c43660046102b2565b5060015490565b6040519081526020016100ad565b61007f6100e73660046102cb565b610100565b6100f46101bc565b6100fe600061023d565b565b6101086101bc565b73ffffffffffffffffffffffffffffffffffffffff81166101b0576040517f08c379a000000000000000000000000000000000000000000000000000000000815260206004820152602660248201527f4f776e61626c653a206e6577206f776e657220697320746865207a65726f206160448201527f646472657373000000000000000000000000000000000000000000000000000060648201526084015b60405180910390fd5b6101b98161023d565b50565b60005473ffffffffffffffffffffffffffffffffffffffff1633146100fe576040517f08c379a000000000000000000000000000000000000000000000000000000000815260206004820181905260248201527f4f776e61626c653a2063616c6c6572206973206e6f7420746865206f776e657260448201526064016101a7565b6000805473ffffffffffffffffffffffffffffffffffffffff8381167fffffffffffffffffffffffff0000000000000000000000000000000000000000831681178455604051919092169283917f8be0079c531659141344cd1fd0a4f28419497f9722a3daafe3b4186f6b6457e09190a35050565b6000602082840312156102c457600080fd5b5035919050565b6000602082840312156102dd57600080fd5b813573ffffffffffffffffffffffffffffffffffffffff8116811461030157600080fd5b939250505056fea264697066735822122025e38a4bde65b4512b47c897fbc64aae37a8c04edf6fae2b49b707237fc7343c64736f6c63430008090033",
  "devdoc": {
    "kind": "dev",
    "methods": {
      "owner()": {
        "details": "Returns the address of the current owner."
      },
      "renounceOwnership()": {
        "details": "Leaves the contract without owner. It will not be possible to call `onlyOwner` functions anymore. Can only be called by the current owner. NOTE: Renouncing ownership will leave the contract without an owner, thereby removing any functionality that is only available to the owner."
      },
      "transferOwnership(address)": {
        "details": "Transfers ownership of the contract to a new account (`newOwner`). Can only be called by the current owner."
      }
    },
    "version": 1
  },
  "userdoc": {
    "kind": "user",
    "methods": {},
    "version": 1
  },
  "storageLayout": {
    "storage": [
      {
        "astId": 7,
        "contract": "contracts/VolatilityOracleSimple.sol:VolatilityOracleSimple",
        "label": "_owner",
        "offset": 0,
        "slot": "0",
        "type": "t_address"
      },
      {
        "astId": 5312,
        "contract": "contracts/VolatilityOracleSimple.sol:VolatilityOracleSimple",
        "label": "volatility",
        "offset": 0,
        "slot": "1",
        "type": "t_uint256"
      }
    ],
    "types": {
      "t_address": {
        "encoding": "inplace",
        "label": "address",
        "numberOfBytes": "20"
      },
      "t_uint256": {
        "encoding": "inplace",
        "label": "uint256",
        "numberOfBytes": "32"
      }
    }
  }
}